:100000000C9434000C9451000C9451000C94510049
:100010000C9451000C9451000C9451000C9451001C
:100020000C9451000C9451000C9451000C9451000C
:100030000C9451000C9451000C9451000C945100FC
:100040000C9451000C9451000C9451000C945100EC
:100050000C9451000C9451000C9451000C945100DC
:100060000C9451000C94510011241FBECFEFD8E026
:10007000DEBFCDBF14E0A0E0B1E0E4E4FFE102C0E8
:1000800005900D92A23EB107D9F714E0A2EEB4E0BC
:1000900001C01D92A83EB107E1F70E9453000C94E5
:1000A000A00F0C9400000F931F93DF93CF93CDB755
:1000B000DEB7C056D0400FB6F894DEBF0FBECDBF3E
:1000C0001A8219828FE991E00E9427070E94DF05BA
:1000D0008BE290E024E0FC01208381E091E00E942B
:1000E000EB050E9464078E838BE290E02BE230E008
:1000F000F90120812B7FFC0120838E810E944A0719
:100100008CE091E00E94EB0580E090E0A0E2B1E499
:100110008F839887A987BA876F81788589859A8523
:1001200020E030E04AEF54E40E944A09DC01CB01B0
:100130008B879C87AD87BE8711E06B857C858D851D
:100140009E8520E030E040E85FE30E94A40A882317
:100150000CF010E0112329F081E090E0988B8F875C
:1001600046C011E06B857C858D859E8520E03FEF44
:100170004FE757E40E94440A18160CF010E01123D0
:1001800061F16F81788589859A8520E030E040E2D1
:1001900051E40E944A09DC01CB01BC01CD010E945F
:1001A0007607DC01CB01988B8F8712C088EC90E03A
:1001B0009A8B898B89899A898C01C8010197F1F7FB
:1001C0008C011A8B098B8F8598890197988B8F8763
:1001D0008F859889009751F717C06B857C858D8531
:1001E0009E850E947607DC01CB01988B8F878F85D7
:1001F00098899C8B8B8B8B899C898C01F80131971A
:10020000F1F78F011C8B0B8B8BE290E02BE230E03F
:10021000F90120812460FC0120838E81882F90E0E9
:100220008437910509F459C085379105A4F48836BF
:10023000910589F1893691052CF48336910509F4ED
:100240004FC1FCC28C36910509F43DC2823791053D
:1002500009F414C2F3C28837910509F47BC08937C9
:10026000910544F48637910509F41BC2873791053F
:1002700049F0E4C28E37910509F42CC28A3A9105FF
:1002800039F1DCC28FE091E00E94EB058CE391E054
:100290000E94EB05D8C28DE591E00E94EB0581E755
:1002A00091E00E94EB058AE891E00E94EB058AEA62
:1002B00091E00E94EB0585EC91E00E94EB0589EE50
:1002C00091E00E94EB058CEF91E00E94EB05BBC230
:1002D00087E192E00E94EB05B6C20E94B70681302A
:1002E000910521F485E492E00E94EB054091E2043F
:1002F0005091E3042091E4043091E5048DB79EB75A
:1003000008970FB6F8949EBF0FBE8DBF8DB79EB7EE
:100310000196BE01635B7F4FFC01718360836EE6D3
:1003200072E0FC0173836283FC0155834483FC010A
:10033000378326830E94F60C8DB79EB708960FB6BA
:10034000F8949EBF0FBE8DBFCE01835B9F4F0E946E
:10035000EB0579C281E892E00E94EB0581E090E034
:100360009A83898385E290E022E0FC0120832AC001
:100370000E9464078E838091E4049091E5040097C5
:1003800049F48BE290E02BE230E0F90120812B7FF1
:10039000FC0120838E81803621F08E810E941C0614
:1003A00002C01A8219828091E4049091E5040097BA
:1003B00049F48BE290E02BE230E0F90120812460E7
:1003C000FC01208389819A818130910589F285E23F
:1003D00090E0FC01108280E090E0A8ECB2E48D8B0C
:1003E0009E8BAF8BB88F6D897E898F89988D20E029
:1003F00030E04AEF54E40E944A09DC01CB01898FC6
:100400009A8FAB8FBC8F11E0698D7A8D8B8D9C8D0F
:1004100020E030E040E85FE30E94A40A88230CF06B
:1004200010E0112329F081E090E09E8F8D8F46C06F
:1004300011E0698D7A8D8B8D9C8D20E03FEF4FE729
:1004400057E40E94440A18160CF010E0112361F1E1
:100450006D897E898F89988D20E030E040E251E4FB
:100460000E944A09DC01CB01BC01CD010E94760744
:10047000DC01CB019E8F8D8F12C088EC90E098A399
:100480008F8F8F8D98A18C01C8010197F1F78C0196
:1004900018A30F8F8D8D9E8D01979E8F8D8F8D8DC3
:1004A0009E8D009751F717C0698D7A8D8B8D9C8D2D
:1004B0000E947607DC01CB019E8F8D8F8D8D9E8DE6
:1004C0009AA389A389A19AA18C01F8013197F1F728
:1004D0008F011AA309A384EB92E00E94EB05B3C13C
:1004E0008FEC92E00E94EB0581E090E09A83898393
:1004F00085E290E022E0FC012083B9C00E946407FD
:100500008E838E81803609F4B0C01C821B82A6C007
:100510008091E4049091E504009749F48BE290E027
:100520002BE230E0F90120812B7FFC0120838E81BA
:100530000E9466068091E4049091E504009749F4D6
:100540008BE290E02BE230E0F90120812460FC0195
:10055000208380E090E0A0E2B1E48BA39CA3ADA354
:10056000BEA36BA17CA18DA19EA120E030E04AEF4B
:1005700054E40E944A09DC01CB018FA398A7A9A7E4
:10058000BAA711E06FA178A589A59AA520E030E06F
:1005900040E85FE30E94A40A88230CF010E01123D6
:1005A00029F081E090E09CA78BA746C011E06FA1E5
:1005B00078A589A59AA520E03FEF4FE757E40E9470
:1005C000440A18160CF010E0112361F16BA17CA114
:1005D0008DA19EA120E030E040E251E40E944A0952
:1005E000DC01CB01BC01CD010E947607DC01CB010F
:1005F0009CA78BA712C088EC90E09EA78DA78DA525
:100600009EA58C01C8010197F1F78C011EA70DA7CB
:100610008BA59CA501979CA78BA78BA59CA5009754
:1006200051F717C06FA178A589A59AA50E947607F2
:10063000DC01CB019CA78BA78BA59CA598AB8FA7B2
:100640008FA598A98C01F8013197F1F78F0118ABAC
:100650000FA78B819C8101969C838B838B819C81CE
:10066000823091050CF454CF02C01A82198289811C
:100670009A818130910509F441CFE5C08EED92E079
:100680000E94EB0588E290E021E0FC01208385E2F6
:1006900090E025E230E0F90120812160FC01208317
:1006A000D2C082E093E00E94EB0588E290E0FC017A
:1006B000108285E290E025E230E0F90120812E7F72
:1006C000FC012083C0C086E193E00E94EB050E94FC
:1006D0006C05B9C08AE393E00E94EB0581E090E0ED
:1006E0009A83898385E290E022E0FC0120839FC009
:1006F00080E38D8398C08BE290E02BE230E0F9013B
:1007000020812B7FFC0120838D810E941C068BE2BF
:1007100090E02BE230E0F90120812460FC0120838D
:1007200080E090E0A0E2B1E489AB9AABABABBCABAC
:1007300069A97AA98BA99CA920E030E04AEF54E48A
:100740000E944A09DC01CB018DAB9EABAFABB8AFC9
:1007500011E06DA97EA98FA998AD20E030E040E8B6
:100760005FE30E94A40A88230CF010E0112329F013
:1007700081E090E09AAF89AF46C011E06DA97EA9F3
:100780008FA998AD20E03FEF4FE757E40E94440A5D
:1007900018160CF010E0112361F169A97AA98BA950
:1007A0009CA920E030E040E251E40E944A09DC01CB
:1007B000CB01BC01CD010E947607DC01CB019AAFD1
:1007C00089AF12C088EC90E09CAF8BAF8BAD9CAD35
:1007D0008C01C8010197F1F78C011CAF0BAF89ADFB
:1007E0009AAD01979AAF89AF89AD9AAD009751F74D
:1007F00017C06DA97EA98FA998AD0E947607DC016C
:10080000CB019AAF89AF89AD9AAD9EAF8DAF8DAD5B
:100810009EAD8C01F8013197F1F78F011EAF0DAF3E
:100820008D818F5F8D838D818B3708F464CF8981B3
:100830009A818130910509F45BCF05C08CE593E086
:100840000E94EB0500008091E6049091E70481305E
:10085000910509F0DDC08BE290E02BE230E0F90178
:1008600020812B7FFC0120839E01215C3F4F80E093
:1008700090E0A8E4B2E4F90180839183A283B3837A
:100880008E010D5B1F4FCE01CF96FC0160817181FF
:100890008281938120E030E04AEF54E40E944A09CB
:1008A000DC01CB01F80180839183A283B383CE0165
:1008B0008D5B9F4F11E0FC0160817181828193818A
:1008C00020E030E040E85FE30E94A40A88230CF0B7
:1008D00010E0112349F0CE01895B9F4F21E030E009
:1008E000FC013183208373C0CE018D5B9F4F11E0EB
:1008F000FC01608171818281938120E03FEF4FE7AD
:1009000057E40E94440A18160CF010E0112309F471
:100910004CC0CE01CF96FC016081718182819381B0
:1009200020E030E040E251E40E944A09DC01CB01C2
:100930008E01095B1F4FBC01CD010E947607DC01CF
:10094000CB01F8019183808327C0CE01875B9F4F45
:1009500028EC30E0FC0131832083CE01875B9F4F80
:10096000FC01808191818C01C8010197F1F78C0114
:10097000CE01875B9F4FFC0111830083CE01895B11
:100980009F4F9E01295B3F4FF9012081318121500A
:100990003040FC0131832083CE01895B9F4FFC01F5
:1009A00080819181009789F62FC08E01095B1F4FCE
:1009B000CE018D5B9F4FFC016081718182819381AB
:1009C0000E947607DC01CB01F80191838083CE0180
:1009D000855B9F4F9E01295B3F4FF901208131814B
:1009E000FC0131832083CE01855B9F4FFC01808118
:1009F00091818C01C8010197F1F78C01CE01855BD3
:100A00009F4FFC01118300831092E7041092E604CB
:100A10008091E2049091E3048430910551F48BE2DB
:100A200090E02BE230E0F9012081277FFC01208358
:100A300027C08091E2049091E3048330910551F442
:100A40008BE290E02BE230E0F90120812860FC018C
:100A5000208316C08091E2049091E30481309105D7
:100A600051F48BE290E02BE230E0F9012081286024
:100A7000FC01208305C08BE290E024E0FC01208390
:100A80008091E4049091E5048430910551F48BE267
:100A900090E02BE230E0F90120812B7FFC012083E4
:100AA0001CCB8091E4049091E5048330910551F4CE
:100AB0008BE290E02BE230E0F90120812460FC0120
:100AC00020830BCB8BE290E02BE230E0F901208118
:100AD0002460FC01208301CBDF93CF9300D000D0B2
:100AE00000D0CDB7DEB70E9464078C831E821D82C2
:100AF0008D819E8187309105D9F70E9464078C8390
:100B00008D819E818130910569F08230910591F04F
:100B1000009799F48C8189838D819E8101969E83B3
:100B20008D830BC08C818A838D819E8101969E83EB
:100B30008D8303C08C818B8300008C81803631F1E2
:100B40008981843419F588E893E00E94EB058A8155
:100B5000282F30E08981882F90E0280F391F8B8162
:100B6000882F90E02817390761F48DEA93E00E94FE
:100B7000EB058A810E944A078CE091E00E94EB0518
:100B800015C082EC93E00E94EB0510C08C8180368A
:100B900049F481ED93E00E94EB0587E090E09E83AD
:100BA0008D8304C08CEE93E00E94EB0526960FB671
:100BB000F894DEBF0FBECDBFCF91DF910895DF93D4
:100BC000CF93CDB7DEB78AE290E02FEFFC01208310
:100BD000CF91DF910895DF93CF9300D000D000D064
:100BE000CDB7DEB79E838D838D819E810E94ED0CF3
:100BF0009C838B831A8219820FC089819A812D81EF
:100C00003E81820F931FFC0180810E944A078981E7
:100C10009A8101969A83898329813A818B819C816B
:100C20002817390754F326960FB6F894DEBF0FBE87
:100C3000CDBFCF91DF910895DF93CF9300D00F9276
:100C4000CDB7DEB78B838091E2049091E3048130CD
:100C5000910549F48BE290E02BE230E0F90120812C
:100C6000277FFC0120831A82198208C08AEA0E9429
:100C70004A0789819A8101969A83898389819A8119
:100C80008E3191059CF3809100010E944A078B816F
:100C90000E944A07909100018B81890F0E944A07A8
:100CA0008091E2049091E3048130910549F48BE254
:100CB00090E02BE230E0F90120812860FC012083E4
:100CC0000F900F900F90CF91DF910895DF93CF9306
:100CD00000D00F92CDB7DEB78B838091E204909164
:100CE000E3048130910549F48BE290E02BE230E09F
:100CF000F9012081277FFC0120831A82198208C014
:100D00008AEA0E944A0789819A8101969A83898397
:100D100089819A818E3191059CF3809100010E9416
:100D20004A07809100010E944A078B810E944A076E
:100D30008B8180950E944A078091000180950E94D6
:100D40004A078091E2049091E3048130910549F4CF
:100D50008BE290E02BE230E0F90120812860FC0179
:100D600020830F900F900F90CF91DF910895DF9324
:100D7000CF93CDB7DEB783E194E00E94EB0587E225
:100D800094E00E94EB058AE494E00E94EB058AE679
:100D900094E00E94EB0588E894E00E94EB050E9435
:100DA0006407882F90E08037910571F081379105B5
:100DB00024F48336910511F145C082379105C9F0BD
:100DC0008437910531F03EC01092E3041092E204A2
:100DD00039C081E090E09093E3048093E2048BE2D9
:100DE00090E02BE230E0F90120812860FC012083B3
:100DF00029C01092E5041092E40424C08DEA94E026
:100E00000E94EB050E946407882F90E087369105C9
:100E100021F08237910559F015C00E946407882F90
:100E200090E08D979093E3048093E2040AC00E94BF
:100E30006407882F90E08D979093E5048093E404F5
:100E40000000000080E090E0CF91DF910895DF93F3
:100E5000CF9300D0CDB7DEB79A83898385EC90E03D
:100E600029813A81232F3327FC01208384EC90E0F1
:100E70002981FC01208381EC90E028E1FC012083A2
:100E800082EC90E02EE0FC0120830F900F90CF9138
:100E9000DF910895DF93CF930F92CDB7DEB78983AB
:100EA000000080EC90E0FC018081882F90E080724F
:100EB00090700097B1F386EC90E02981FC012083CB
:100EC0000F90CF91DF910895DF93CF93CDB7DEB729
:100ED000000080EC90E0FC0180818823D4F786EC50
:100EE00090E0FC018081CF91DF910895EF92FF9215
:100EF0000F931F937B018C0120E030E040E05FE422
:100F00000E94740A87FD11C0C801B70120E030E0DB
:100F100040E05FE40E9419090E94D40A9B01AC01E1
:100F2000205030404040504806C0C801B7010E94E0
:100F3000D40A9B01AC01B901CA011F910F91FF9026
:100F4000EF900895A0E0B0E0E8EAF7E00C94BA0C66
:100F5000FC01EA018081823008F438C1DB019C91F8
:100F6000923008F430C1843059F4943009F02EC125
:100F7000918111968C911197981709F021C126C182
:100F8000943009F420C19230B1F4823009F01EC1CE
:100F9000CA01AF0128E0DA010D90AD01DC010D922C
:100FA000CD012150C1F7DB0111968C9111979181F0
:100FB000892389830AC1823009F405C1C280D380A4
:100FC000DB0112966D907C901397248135814681C8
:100FD00057811496ED90FD900D911C911797C601C5
:100FE000861997095C0197FF04C0AA24BB24A81A9C
:100FF000B90AB0E2AB16B1040CF061C018161906BC
:101000006CF5370148010A2C04C0969487947794B4
:1010100067940A94D2F781E090E0A0E0B0E00A2C57
:1010200004C0880F991FAA1FBB1F0A94D2F701970B
:10103000A109B1098E219F21A023B123EE24FF2411
:101040008701E3940097A105B10519F4EE24FF246C
:101050008701E628F728082919293CC00097D1F113
:10106000CA0CDB1C39014A010A2C04C096948794EF
:10107000779467940A94D2F781E090E0A0E0B0E022
:101080000A2C04C0880F991FAA1FBB1F0A94D2F70D
:101090000197A109B10982239323A423B52321E059
:1010A00030E040E050E00097A105B10519F420E0E0
:1010B00030E0A90126293729482959290BC06C1489
:1010C0007D0424F4EE24FF24870104C0630120E0A2
:1010D00030E0A9018181FB019181891709F445C0A4
:1010E000882349F0D801C701821B930BA40BB50BD1
:1010F0009C01AD0104C02E193F09400B510B57FD57
:1011000004C01982DB82CA820BC081E08983DB8242
:10111000CA8250954095309521953F4F4F4F5F4F74
:101120002C833D834E835F830DC0880F991FAA1FB8
:10113000BB1F8C839D83AE83BF838A819B81019774
:101140009B838A838C819D81AE81BF819C01AD018F
:1011500021503040404050402F3FEFEF3E07EFEF2F
:101160004E07EFE35E0708F30BC08983DB82CA8278
:101170002E0D3F1D401F511F2C833D834E835F83E7
:1011800083E088832C813D814E815F8157FF1DC0A4
:10119000DA01C90181709070A070B07056954795C2
:1011A00037952795822B932BA42BB52B8C839D836E
:1011B000AE83BF838A819B8101969B838A8305C00E
:1011C000E9EDF4E003C0FB0101C0FE01CF01CDB7A2
:1011D000DEB7EEE00C94D60CA0E2B0E0E2EFF8E06F
:1011E0000C94C20C69837A838B839C832D833E830A
:1011F0004F83588789E0E82EF12CEC0EFD1ECE01BE
:101200000196B7010E94F40B8E010F5E1F4FCE01B5
:101210000596B8010E94F40BC701B801AE01475E04
:101220005F4F0E94A2070E94260BA096E6E00C9456
:10123000DE0CA0E2B0E0EFE1F9E00C94C20C6983AF
:101240007A838B839C832D833E834F8358878E01C3
:10125000075F1F4FCE010196B8010E94F40B91E188
:10126000E92EF12CEC0EFD1ECE010596B7010E9471
:10127000F40B8A8991E089278A8BC801B701AE01F6
:10128000475E5F4F0E94A2070E94260BA096E6E0F1
:101290000C94DE0CA0E2B0E0E0E5F9E00C94B60CB2
:1012A00069837A838B839C832D833E834F83588706
:1012B000CE010196BE01675F7F4F0E94F40BCE0105
:1012C0000596BE016F5E7F4F0E94F40B99859230A8
:1012D00078F089898230C0F0943019F4823041F47A
:1012E000CBC0843019F4923079F4C6C0923051F4F6
:1012F00081E02A859A89291709F480E08A87CE013E
:101300000996BCC0823051F481E02A859A89291758
:1013100009F480E08A8BCE014196B0C06D847E8452
:101320008F849888ED88FE880F89188DE0E2F0E0C0
:1013300080E090E0DC01AA24BB24650120E030E0DD
:10134000A901B3016170707061157105D1F02E0DA6
:101350003F1D401F511F15012601280E391E4A1E30
:101360005B1E81E090E0A0E0B0E02E153F05400755
:10137000510718F080E090E0DC01820D931DA41D60
:10138000B51DAA0CBB1CCC1CDD1C17FF09C061E0FD
:10139000262E312C412C512CA228B328C428D52824
:1013A000319749F0EE0CFF1C001F111F9694879493
:1013B00077946794C6CF6B897C89EB85FC856E0F2B
:1013C0007F1F6E5F7F4F7C8F6B8F61E0EA857A892C
:1013D000E71709F460E06A8F6B8D7C8D10C0FC010B
:1013E000E170F070309729F056954795379527951D
:1013F0005068B695A795979587956F5F7F4FB7FD16
:10140000EECF0CC0880F991FAA1FBB1F57FD81602C
:10141000220F331F441F551F615070408030E0E0A1
:101420009E07E0E0AE07E0E4BE0760F36B8F7C8FC1
:101430006FE7E62EF12C012D112DE822F9220A2367
:101440001B2360E4E616F1040105110561F487FD34
:101450000AC0211531054105510529F0805C9F4FD7
:10146000AF4FBF4F80788D8F9E8FAF8FB8A383E033
:10147000898FCE01499602C089ED94E00E94260B27
:10148000A096E2E10C94D20CA8E1B0E0EAE4FAE024
:101490000C94C20C69837A838B839C832D833E8357
:1014A0004F8358878E01075F1F4FCE010196B80109
:1014B0000E94F40B81E1E82EF12CEC0EFD1ECE0112
:1014C0000596B7010E94F40B8985823040F0898926
:1014D000823028F0C801B7010E945D0C01C08FEF77
:1014E0006896E6E00C94DE0CA8E1B0E0EAE7FAE0EA
:1014F0000C94C20C69837A838B839C832D833E83F7
:101500004F8358878E01075F1F4FCE010196B801A8
:101510000E94F40B81E1E82EF12CEC0EFD1ECE01B1
:101520000596B7010E94F40B8985823040F08989C5
:10153000823028F0C801B7010E945D0C01C08FEF16
:101540006896E6E00C94DE0CA8E1B0E0EAEAFAE086
:101550000C94C20C69837A838B839C832D833E8396
:101560004F8358878E01075F1F4FCE010196B80148
:101570000E94F40B81E1E82EF12CEC0EFD1ECE0151
:101580000596B7010E94F40B8985823040F0898965
:10159000823028F0C801B7010E945D0C01C081E0D3
:1015A0006896E6E00C94DE0CACE0B0E0EAEDFAE020
:1015B0000C94C60C69837A838B839C83CE0101963D
:1015C000BE016B5F7F4F0E94F40B8D81823081F1F1
:1015D000823070F1843021F48E81882369F10AC051
:1015E0002F81388537FD24C06E812F3131053CF0C5
:1015F000662311F120E030E040E050E821C08EE1A8
:1016000090E0821B930B29853A854B855C8504C04D
:1016100056954795379527958A95D2F7662381F099
:1016200050954095309521953F4F4F4F5F4F08C0E3
:1016300020E030E0A90104C02FEF3FEF4FEF5FE75C
:10164000B901CA012C96E2E00C94E20CEF92FF92F1
:101650000F931F93CF93DF93FC0124813581468143
:10166000578161818081823020F44061EFEFF0E0AA
:10167000A3C0843009F49BC0823009F492C02115C4
:1016800031054105510509F48FC00280F381E02D39
:101690008FEFE238F8070CF05AC0C2E8DFEFCE1B3C
:1016A000DF0BCA31D1056CF579018A010C2E04C01B
:1016B00016950795F794E7940A94D2F781E090E0A5
:1016C000A0E0B0E00C2E04C0880F991FAA1FBB1F1A
:1016D0000A94D2F70197A109B10982239323A42385
:1016E000B52321E030E040E050E00097A105B105CE
:1016F00019F420E030E0A9012E293F29402B512B7D
:1017000003C020E030E0A901DA01C9018F779070B1
:10171000A070B07080349105A105B10539F427FFA0
:1017200009C0205C3F4F4F4F5F4F04C0215C3F4FCB
:101730004F4F5F4FE1E0F0E0203080E0380780E07D
:10174000480780E4580728F5E0E0F0E022C0E038E0
:10175000F1056CF5E158FF4FDA01C9018F77907000
:10176000A070B07080349105A105B10539F427FF50
:1017700009C0205C3F4F4F4F5F4F04C0215C3F4F7B
:101780004F4F5F4F57FF05C05695479537952795A3
:10179000319687E056954795379527958A95D1F7E5
:1017A0000BC0E0E0F0E005C0E0E0F0E005C0EFEFE6
:1017B000F0E020E030E0A9018E2F879588278795FB
:1017C000942F9F77679566276795E695E22EA92F58
:1017D000A82BFE2FF62B622F732F8A2F9F2FCDB7AA
:1017E000DEB7E6E00C94DE0CDC01FB012C911196D7
:1017F0003C91119712968C911297482F4F7750E099
:10180000982F991F9927991F13966C911397862FDC
:10181000880F892B90E0661F6627661F61830097FB
:1018200039F5211531054105510511F482E029C032
:1018300082E89FEF9383828367E0220F331F441F68
:10184000551F6A95D1F783E0808309C0220F331FAB
:10185000441F551F82819381019793838283203097
:1018600080E0380780E0480780E4580778F320C01C
:101870008F3F910579F4211531054105510519F482
:1018800084E08083089544FF03C081E0808310C01A
:1018900010820EC08F5790409383828383E08083B1
:1018A00087E0220F331F441F551F8A95D1F75064DC
:1018B00024833583468357830895FC01DB0190819F
:1018C000923008F449C08C91823008F445C09430BD
:1018D00051F461818430B1F511962C91119730E06B
:1018E000261B310941C0843021F0923041F482300E
:1018F000B1F111968C9111978823A1F12DC06181CE
:10190000823001F111968C9111976817D9F42281D8
:10191000338112968D919C9113978217930794F0BF
:1019200028173907BCF024813581468157811496E8
:101930008D919D910D90BC91A02D82179307A407C6
:10194000B50718F4662341F00DC0281739074A0778
:101950005B0728F4662331F021E030E005C020E089
:1019600030E002C02FEF3FEFC90108952F923F9260
:101970004F925F926F927F928F929F92AF92BF929F
:10198000CF92DF92EF92FF920F931F93CF93DF934B
:10199000CDB7DEB7CA1BDB0B0FB6F894DEBF0FBEA8
:1019A000CDBF09942A88398848885F846E847D84F5
:1019B0008C849B84AA84B984C884DF80EE80FD80F7
:1019C0000C811B81AA81B981CE0FD11D0FB6F8946D
:1019D000DEBF0FBECDBFED010895FC0101900020D8
:1019E000E9F7809590958E0F9F1F0895AEE0B0E0C7
:1019F000ECEFFCE00C94C40C0D891E8986E08C830E
:101A00001A8309838FEF9FE79E838D839E01275E54
:101A10003F4FCE0101966F89788DA9010E94190D63
:101A2000EF81F885E00FF11F10822E96E4E00C9410
:101A3000E00CACE0B0E0EFE1FDE00C94B60C6C0122
:101A40001B018A01FC0117821682838181FFD1C1AB
:101A50002E010894411C511CF6019381F10193FD64
:101A6000859193FF81911F01882309F4BEC18532BE
:101A700039F493FD859193FF81911F01853229F4FB
:101A800090E0B6010E94160FE7CFEE24FF2420E07D
:101A90002032B0F48B3269F08C3228F4803251F06D
:101AA000833271F40BC08D3239F0803349F42160F8
:101AB0002CC02260246029C0286027C0206125C076
:101AC00027FD2CC0382F30533A3098F426FF08C039
:101AD0008E2D880FE82EEE0CEE0CE80EE30E15C0EE
:101AE0008F2D880FF82EFF0CFF0CF80EF30E2062DE
:101AF0000CC08E3221F426FD78C1206406C08C36DD
:101B000011F4206802C0883649F4F10193FD8591F3
:101B100093FF81911F01882309F0BACF982F955424
:101B2000933018F09052933028F40C5F1F4FFFE36E
:101B3000F9830DC0833631F0833771F0833509F0B6
:101B400060C022C0F801808189830E5F1F4F42016F
:101B500071E0A72EB12C16C062E0662E712C600ECB
:101B6000711EF8018080918026FF03C06E2D70E009
:101B700002C06FEF7FEFC4012C870E940B0F5C0146
:101B800083012C852F7717C052E0652E712C600ED3
:101B9000711EF8018080918026FF03C06E2D70E0D9
:101BA00002C06FEF7FEFC4012C870E94000F5C0121
:101BB0002C852068830123FD20C008C080E290E0CE
:101BC000B6012C870E94160FFA942C858F2D90E079
:101BD000A816B90698F311C0F40127FD859127FFD7
:101BE00081914F0190E0B6012C870E94160F2C8541
:101BF000F110FA940894A108B108A114B10461F796
:101C0000F1C0843611F0893649F527FF08C0F80184
:101C100060817181828193810C5F1F4F09C0F8013F
:101C200060817181882777FD8095982F0E5F1F4F07
:101C30004FE6B42EB22297FF09C09095809570951B
:101C400061957F4F8F4F9F4FF0E8BF2AA2012AE096
:101C500030E00E94420F782E741845C0853731F469
:101C60003FEEB32EB2222AE030E025C099EFB92E24
:101C7000B2228F36C1F0803720F4883509F0B5C024
:101C80000DC0803721F0883709F0AFC002C020E1D5
:101C9000B22AB4FE0BC084E0B82A08C0B4FE09C062
:101CA000E6E0BE2A06C028E030E005C020E130E0D2
:101CB00002C020E132E0B7FE08C0F8016081718106
:101CC000828193810C5F1F4F07C0F8016081718191
:101CD00080E090E00E5F1F4FA2010E94420F782E1D
:101CE0007418FFE7BF22B6FE0BC02EEFB2227E149F
:101CF00038F4B4FE07C0B2FC05C08FEEB82202C0B3
:101D0000A72C01C0AE2C8B2D90E0B4FE0DC0FE01BF
:101D1000E70DF11D2081203319F4E9EEBE2209C040
:101D2000A394B2FE06C004C086789070009709F0B4
:101D3000A3948B2C9924B3FC14C0B0FE0FC0AF1435
:101D400028F4E72CEF0CEA18AF2C08C0E72C06C0EB
:101D500080E290E0B6010E94160FA394AF14C0F386
:101D600004C0AF1410F4FA1801C0FF2484FE0FC0A1
:101D700080E390E0B6010E94160F82FE1FC081FE34
:101D800003C088E590E010C088E790E00DC0C40172
:101D900086789070009791F081FC02C080E201C0CB
:101DA0008BE2B7FC8DE290E0B6010E94160F06C0F0
:101DB00080E390E0B6010E94160FEA947E14C0F30F
:101DC0007A94F201E70DF11D808190E0B6010E9446
:101DD000160F7720A9F706C080E290E0B6010E94B6
:101DE000160FFA94FF20C1F737CEF601268137810E
:101DF00002C02FEF3FEFC9012C96E2E10C94D20C08
:101E0000FC010590615070400110D8F780959095C5
:101E10008E0F9F1F0895FC016150704001900110CA
:101E2000D8F7809590958E0F9F1F08950F931F935D
:101E3000CF93DF938C01EB018B8181FF1BC082FF6D
:101E40000DC02E813F818C819D812817390764F454
:101E5000E881F9810193F983E88306C0E885F98573
:101E6000802F0995009731F48E819F8101969F8381
:101E70008E8302C00FEF1FEFC801DF91CF911F913A
:101E80000F910895FA01AA27283051F1203181F1EC
:101E9000E8946F936E7F6E5F7F4F8F4F9F4FAF4F72
:101EA000B1E03ED0B4E03CD0670F781F891F9A1F85
:101EB000A11D680F791F8A1F911DA11D6A0F711D39
:101EC000811D911DA11D20D009F468943F912AE045
:101ED000269F11243019305D3193DEF6CF0108952D
:101EE000462F4770405D4193B3E00FD0C9F7F6CF5E
:101EF000462F4F70405D4A3318F0495D31FD405226
:101F0000419302D0A9F7EACFB4E0A69597958795BB
:101F100077956795BA95C9F700976105710508959A
:101F20009B01AC010A2E0694579547953795279546
:101F3000BA95C9F7620F731F841F951FA01D0895DE
:041F4000F894FFCF43
:101F440044636F6E736F6C652D3E20000D0A00555F
:101F5400534220526164696F204672657175656EE3
:101F64006379205472616E736D6974746572202F85
:101F74002052656365697665720D0A00496E707555
:101F8400742027682720666F72206C697374206F31
:101F94006620636F6D6D616E64730D0A00436F6D2F
:101FA4006D616E6420476C6F73736172793A0D0AC8
:101FB4000077202D2044657669636520496E666F3D
:101FC400726D6174696F6E0D0A0068202D2044697A
:101FD40073706C617920746869732068656C702013
:101FE4006D6573736167650D0A0074202D20436F5E
:101FF4006E666967757265204C454420737461741C
:1020040065730D0A0078202D20416374697661742C
:1020140065205458207472616E736D697474696FAD
:102024006E206D6F64650D0A0063202D20436F6D73
:102034006D616E64204D6F64650D0A007E202D2055
:1020440041637469766174652074756E696E672086
:102054006D6F64650D0A005265636569766572206B
:102064007069636B65642075702061207369676EA5
:10207400616C0D0A506C6561736520686F6C642E29
:102084002E2E0D0A00457863657074696F6E206F9B
:10209400636375727265642E2E20706F7373696248
:1020A4006C6520524620696E7075740D0A00477283
:1020B40065656E3A25640D0A5265643A25640D0A15
:1020C400005472616E736D697420646174612E20B2
:1020D400426567696E2077697468202774272E200B
:1020E40027602720746F2073746F7020696E707579
:1020F400740D0A000D0A5472616E736D697373690D
:102104006F6E20636F6D706C6574652E0D0A0043ED
:102114006F6D6D616E64204D6F64650D0A00456ED0
:1021240061626C696E67205258204D6F64652E2081
:1021340027762720746F2064697361626C652E0DA5
:102144000A0044697361626C696E67205258204DBD
:102154006F64650D0A005258204465636F646572AC
:102164002F4C697374656E65722E20276027207466
:102174006F20657869742E0D0A0054756E696E6758
:10218400206D6F64652E20526573746172742074BF
:102194006F20657869742E2E2E0D0A00496E7661C3
:1021A4006C696420696E7075742E20276827206618
:1021B4006F722061206C697374206F6620636F6D89
:1021C4006D616E64730D0A005265636569766564BA
:1021D4002066726F6D20636F727265637420616430
:1021E400647265737320307834340D0A00476F6F5E
:1021F4006420446174612072656365697665643A3C
:10220400200042616420636865636B73756D0D0A19
:102214000052656365697665642073746F70202766
:102224006027207369676E616C0D0A0044617461F4
:102234002072656365697665642066726F6D2069D6
:102244006E636F7272656374206164647265737324
:102254000D0A00546F67676C65204C454420557324
:102264006167653A0D0A00277027203A2047726596
:10227400656E204C454420726570726573656E749A
:102284007320506F7765720D0A00277427203A2057
:10229400477265656E204C454420726570726573A3
:1022A400656E74732054580D0A00277227203A2053
:1022B400526564204C454420726570726573656E86
:1022C40074732052580D0A00276327203A20416C6A
:1022D4006C6F7720666F72204D616E75616C204C57
:1022E400454420436F6E74726F6C0D0A00496E7022
:1022F400757420276727206F722027722720746F38
:1023040020636F6E74726F6C2C207468656E20305D
:10231400206F7220313A0D0A000000000000000016
:022324000000B7
:00000001FF
